{
  "_format": "hh-sol-artifact-1",
  "contractName": "SecureToken",
  "sourceName": "contracts/SecureToken.sol",
  "abi": [
    {
      "inputs": [],
      "stateMutability": "nonpayable",
      "type": "constructor"
    },
    {
      "anonymous": false,
      "inputs": [
        {
          "indexed": true,
          "internalType": "address",
          "name": "by",
          "type": "address"
        }
      ],
      "name": "ContractPaused",
      "type": "event"
    },
    {
      "anonymous": false,
      "inputs": [
        {
          "indexed": true,
          "internalType": "address",
          "name": "by",
          "type": "address"
        }
      ],
      "name": "ContractUnpaused",
      "type": "event"
    },
    {
      "anonymous": false,
      "inputs": [
        {
          "indexed": true,
          "internalType": "address",
          "name": "user",
          "type": "address"
        },
        {
          "indexed": false,
          "internalType": "uint256",
          "name": "newLimit",
          "type": "uint256"
        }
      ],
      "name": "DailyLimitUpdated",
      "type": "event"
    },
    {
      "anonymous": false,
      "inputs": [
        {
          "indexed": false,
          "internalType": "uint256",
          "name": "newGasLimit",
          "type": "uint256"
        }
      ],
      "name": "GasLimitUpdated",
      "type": "event"
    },
    {
      "anonymous": false,
      "inputs": [
        {
          "indexed": true,
          "internalType": "address",
          "name": "from",
          "type": "address"
        },
        {
          "indexed": true,
          "internalType": "address",
          "name": "to",
          "type": "address"
        },
        {
          "indexed": false,
          "internalType": "uint256",
          "name": "amount",
          "type": "uint256"
        },
        {
          "indexed": false,
          "internalType": "uint256",
          "name": "timestamp",
          "type": "uint256"
        },
        {
          "indexed": false,
          "internalType": "string",
          "name": "transactionType",
          "type": "string"
        },
        {
          "indexed": false,
          "internalType": "uint256",
          "name": "status",
          "type": "uint256"
        },
        {
          "indexed": false,
          "internalType": "uint256",
          "name": "gasUsed",
          "type": "uint256"
        }
      ],
      "name": "TransactionExecuted",
      "type": "event"
    },
    {
      "anonymous": false,
      "inputs": [
        {
          "indexed": true,
          "internalType": "address",
          "name": "user",
          "type": "address"
        }
      ],
      "name": "UserRegistered",
      "type": "event"
    },
    {
      "inputs": [],
      "name": "MAX_DAILY_LIMIT",
      "outputs": [
        {
          "internalType": "uint256",
          "name": "",
          "type": "uint256"
        }
      ],
      "stateMutability": "view",
      "type": "function"
    },
    {
      "inputs": [],
      "name": "MAX_GAS_LIMIT",
      "outputs": [
        {
          "internalType": "uint256",
          "name": "",
          "type": "uint256"
        }
      ],
      "stateMutability": "view",
      "type": "function"
    },
    {
      "inputs": [],
      "name": "MIN_GAS_LIMIT",
      "outputs": [
        {
          "internalType": "uint256",
          "name": "",
          "type": "uint256"
        }
      ],
      "stateMutability": "view",
      "type": "function"
    },
    {
      "inputs": [],
      "name": "MIN_TRANSACTION_AMOUNT",
      "outputs": [
        {
          "internalType": "uint256",
          "name": "",
          "type": "uint256"
        }
      ],
      "stateMutability": "view",
      "type": "function"
    },
    {
      "inputs": [],
      "name": "TRANSACTION_FEE",
      "outputs": [
        {
          "internalType": "uint256",
          "name": "",
          "type": "uint256"
        }
      ],
      "stateMutability": "view",
      "type": "function"
    },
    {
      "inputs": [
        {
          "internalType": "address",
          "name": "user",
          "type": "address"
        }
      ],
      "name": "getDailyLimit",
      "outputs": [
        {
          "internalType": "uint256",
          "name": "",
          "type": "uint256"
        }
      ],
      "stateMutability": "view",
      "type": "function"
    },
    {
      "inputs": [
        {
          "internalType": "address",
          "name": "userAddress",
          "type": "address"
        }
      ],
      "name": "getUserTransactions",
      "outputs": [
        {
          "components": [
            {
              "internalType": "address",
              "name": "from",
              "type": "address"
            },
            {
              "internalType": "address",
              "name": "to",
              "type": "address"
            },
            {
              "internalType": "uint256",
              "name": "amount",
              "type": "uint256"
            },
            {
              "internalType": "uint256",
              "name": "timestamp",
              "type": "uint256"
            },
            {
              "internalType": "string",
              "name": "transactionType",
              "type": "string"
            },
            {
              "internalType": "bool",
              "name": "completed",
              "type": "bool"
            },
            {
              "internalType": "uint256",
              "name": "status",
              "type": "uint256"
            },
            {
              "internalType": "uint256",
              "name": "gasUsed",
              "type": "uint256"
            }
          ],
          "internalType": "struct SecureToken.Transaction[]",
          "name": "",
          "type": "tuple[]"
        }
      ],
      "stateMutability": "view",
      "type": "function"
    },
    {
      "inputs": [
        {
          "internalType": "address",
          "name": "user",
          "type": "address"
        }
      ],
      "name": "isRegistered",
      "outputs": [
        {
          "internalType": "bool",
          "name": "",
          "type": "bool"
        }
      ],
      "stateMutability": "view",
      "type": "function"
    },
    {
      "inputs": [],
      "name": "owner",
      "outputs": [
        {
          "internalType": "address",
          "name": "",
          "type": "address"
        }
      ],
      "stateMutability": "view",
      "type": "function"
    },
    {
      "inputs": [],
      "name": "pause",
      "outputs": [],
      "stateMutability": "nonpayable",
      "type": "function"
    },
    {
      "inputs": [],
      "name": "paused",
      "outputs": [
        {
          "internalType": "bool",
          "name": "",
          "type": "bool"
        }
      ],
      "stateMutability": "view",
      "type": "function"
    },
    {
      "inputs": [],
      "name": "register",
      "outputs": [],
      "stateMutability": "nonpayable",
      "type": "function"
    },
    {
      "inputs": [
        {
          "internalType": "address",
          "name": "user",
          "type": "address"
        },
        {
          "internalType": "uint256",
          "name": "newLimit",
          "type": "uint256"
        }
      ],
      "name": "setDailyLimit",
      "outputs": [],
      "stateMutability": "nonpayable",
      "type": "function"
    },
    {
      "inputs": [
        {
          "internalType": "address",
          "name": "to",
          "type": "address"
        }
      ],
      "name": "transfer",
      "outputs": [],
      "stateMutability": "payable",
      "type": "function"
    },
    {
      "inputs": [],
      "name": "unpause",
      "outputs": [],
      "stateMutability": "nonpayable",
      "type": "function"
    },
    {
      "inputs": [],
      "name": "withdraw",
      "outputs": [],
      "stateMutability": "nonpayable",
      "type": "function"
    },
    {
      "stateMutability": "payable",
      "type": "receive"
    }
  ],
  "bytecode": "0x608060405234801561001057600080fd5b50600580546001600160a81b0319163360ff60a01b1916179055611188806100396000396000f3fe6080604052600436106100f75760003560e01c80638456cb591161008a578063c3c5a54711610059578063c3c5a54714610269578063e3f5aa51146102a2578063e62a4c9f146102b9578063ef925399146102d657600080fd5b80638456cb59146102075780638da5cb5b1461021c578063a2e07be014610254578063b1b235351461025457600080fd5b80633f4ba83a116100c65780633f4ba83a1461016257806358f2ef17146101775780635c975abb146101c05780637ce1ffeb146101f157600080fd5b80631a695230146101035780631aa3a008146101185780632803212f1461012d5780633ccfd60b1461014d57600080fd5b366100fe57005b600080fd5b610116610111366004610de2565b610303565b005b34801561012457600080fd5b5061011661083f565b34801561013957600080fd5b50610116610148366004610e04565b6108f7565b34801561015957600080fd5b506101166109cb565b34801561016e57600080fd5b50610116610adc565b34801561018357600080fd5b506101ad610192366004610de2565b6001600160a01b031660009081526003602052604090205490565b6040519081526020015b60405180910390f35b3480156101cc57600080fd5b506005546101e190600160a01b900460ff1681565b60405190151581526020016101b7565b3480156101fd57600080fd5b506101ad61520881565b34801561021357600080fd5b50610116610b40565b34801561022857600080fd5b5060055461023c906001600160a01b031681565b6040516001600160a01b0390911681526020016101b7565b34801561026057600080fd5b506101ad600081565b34801561027557600080fd5b506101e1610284366004610de2565b6001600160a01b031660009081526002602052604090205460ff1690565b3480156102ae57600080fd5b506101ad62b71b0081565b3480156102c557600080fd5b506101ad68056bc75e2d6310000081565b3480156102e257600080fd5b506102f66102f1366004610de2565b610baa565b6040516101b79190610e74565b600554600160a01b900460ff16156103575760405162461bcd60e51b815260206004820152601260248201527110dbdb9d1c9858dd081a5cc81c185d5cd95960721b60448201526064015b60405180910390fd5b3360009081526002602052604090205460ff166103ac5760405162461bcd60e51b8152602060048201526013602482015272155cd95c881b9bdd081c9959da5cdd195c9959606a1b604482015260640161034e565b6001600160a01b0381166104025760405162461bcd60e51b815260206004820152601960248201527f496e76616c696420726563697069656e74206164647265737300000000000000604482015260640161034e565b600034116104525760405162461bcd60e51b815260206004820152601d60248201527f416d6f756e74206d7573742062652067726561746572207468616e2030000000604482015260640161034e565b336000908152600360205260409020543411156104b15760405162461bcd60e51b815260206004820152601a60248201527f416d6f756e742065786365656473206461696c79206c696d6974000000000000604482015260640161034e565b3360009081526004602052604090205462015180906104d09042610f57565b106104f15733600090815260036020526040902068056bc75e2d6310000090555b6000816001600160a01b03163460405160006040518083038185875af1925050503d806000811461053e576040519150601f19603f3d011682016040523d82523d6000602084013e610543565b606091505b50509050806105865760405162461bcd60e51b815260206004820152600f60248201526e151c985b9cd9995c8819985a5b1959608a1b604482015260640161034e565b60005a336000818152600160208181526040808420548151610100810183528681526001600160a01b038b81168286019081523483860190815242606085019081528651808801885260088152672a3930b739b332b960c11b818a01526080860190815260a086018a905260c086018a905260e086018d90529a8a52898852868a20868b5290975294909720825181549083166001600160a01b0319918216178255975196810180549790921696909716959095179094559051600285015590516003840155925193945091928291906004820190610665908261100f565b5060a082015160058201805460ff191691151591909117905560c0820151600682015560e09091015160079091015561069f8260016110cf565b33600090815260016020908152604080832093909355600481528282204290556003905290812080543492906106d6908490610f57565b9091555050336001600160a01b038616146107c5576001600160a01b03808616600090815260016020818152604080842054848352818520818652835293819020865181549087166001600160a01b031991821617825592870151938101805494909616939092169290921790935583015160028301556060830151600383015560808301519093508291906004820190610771908261100f565b5060a082015160058201805460ff191691151591909117905560c0820151600682015560e0909101516007909101556107ab8260016110cf565b6001600160a01b0386166000908152600160205260409020555b6040805134815242602082015260a0818301819052600890820152672a3930b739b332b960c11b60c0820152600160608201526080810185905290516001600160a01b0387169133917fc87aba126ce10bf11aa919bfd074c3da382fa94418911bf684a86e3eb6bf80819181900360e00190a35050505050565b3360009081526002602052604090205460ff161561089f5760405162461bcd60e51b815260206004820152601760248201527f5573657220616c72656164792072656769737465726564000000000000000000604482015260640161034e565b336000818152600260209081526040808320805460ff19166001179055600390915280822068056bc75e2d631000009055517f54db7a5cb4735e1aac1f53db512d3390390bb6637bd30ad4bf9fc98667d9b9b99190a2565b6005546001600160a01b031633146109215760405162461bcd60e51b815260040161034e906110e2565b68056bc75e2d631000008111156109725760405162461bcd60e51b81526020600482015260156024820152744c696d69742065786365656473206d6178696d756d60581b604482015260640161034e565b6001600160a01b03821660008181526003602052604090819020839055517f074424510750f675220b94bac388bff82d6407b38f341b0226af2ab45af33dc2906109bf9084815260200190565b60405180910390a25050565b6005546001600160a01b031633146109f55760405162461bcd60e51b815260040161034e906110e2565b4780610a3c5760405162461bcd60e51b81526020600482015260166024820152754e6f2062616c616e636520746f20776974686472617760501b604482015260640161034e565b6005546040516000916001600160a01b03169061c35090849084818181858888f193505050503d8060008114610a8e576040519150601f19603f3d011682016040523d82523d6000602084013e610a93565b606091505b5050905080610ad85760405162461bcd60e51b815260206004820152601160248201527015da5d1a191c985dd85b0819985a5b1959607a1b604482015260640161034e565b5050565b6005546001600160a01b03163314610b065760405162461bcd60e51b815260040161034e906110e2565b6005805460ff60a01b1916905560405133907f5b65b0c1363b3003db9bcc5e1fd8805a6d6bf5bf6dc9d3431ee4494cd7d1176690600090a2565b6005546001600160a01b03163314610b6a5760405162461bcd60e51b815260040161034e906110e2565b6005805460ff60a01b1916600160a01b17905560405133907f81990fd9a5c552b8e3677917d8a03c07678f0d2cb68f88b634aca2022e9bd19f90600090a2565b6001600160a01b0381166000908152600160205260408120546060918167ffffffffffffffff811115610bdf57610bdf610f70565b604051908082528060200260200182016040528015610c6c57816020015b610c5960405180610100016040528060006001600160a01b0316815260200160006001600160a01b0316815260200160008152602001600081526020016060815260200160001515815260200160008152602001600081525090565b815260200190600190039081610bfd5790505b50905060005b82811015610dbe576001600160a01b0380861660009081526020818152604080832085845282529182902082516101008101845281548516815260018201549094169184019190915260028101549183019190915260038101546060830152600481018054608084019190610ce690610f86565b80601f0160208091040260200160405190810160405280929190818152602001828054610d1290610f86565b8015610d5f5780601f10610d3457610100808354040283529160200191610d5f565b820191906000526020600020905b815481529060010190602001808311610d4257829003601f168201915b5050509183525050600582015460ff1615156020820152600682015460408201526007909101546060909101528251839083908110610da057610da0611123565b60200260200101819052508080610db690611139565b915050610c72565b509392505050565b80356001600160a01b0381168114610ddd57600080fd5b919050565b600060208284031215610df457600080fd5b610dfd82610dc6565b9392505050565b60008060408385031215610e1757600080fd5b610e2083610dc6565b946020939093013593505050565b6000815180845260005b81811015610e5457602081850181015186830182015201610e38565b506000602082860101526020601f19601f83011685010191505092915050565b60006020808301818452808551808352604092508286019150828160051b87010184880160005b83811015610f3357888303603f19018552815180516001600160a01b0390811685528882015116888501528681015187850152606080820151908501526080808201516101008287018190529190610ef583880182610e2e565b9250505060a080830151610f0c8288018215159052565b505060c0828101519086015260e09182015191909401529386019390860190600101610e9b565b509098975050505050505050565b634e487b7160e01b600052601160045260246000fd5b81810381811115610f6a57610f6a610f41565b92915050565b634e487b7160e01b600052604160045260246000fd5b600181811c90821680610f9a57607f821691505b602082108103610fba57634e487b7160e01b600052602260045260246000fd5b50919050565b601f82111561100a57600081815260208120601f850160051c81016020861015610fe75750805b601f850160051c820191505b8181101561100657828155600101610ff3565b5050505b505050565b815167ffffffffffffffff81111561102957611029610f70565b61103d816110378454610f86565b84610fc0565b602080601f831160018114611072576000841561105a5750858301515b600019600386901b1c1916600185901b178555611006565b600085815260208120601f198616915b828110156110a157888601518255948401946001909101908401611082565b50858210156110bf5787850151600019600388901b60f8161c191681555b5050505050600190811b01905550565b80820180821115610f6a57610f6a610f41565b60208082526021908201527f4f6e6c79206f776e65722063616e2063616c6c20746869732066756e6374696f6040820152603760f91b606082015260800190565b634e487b7160e01b600052603260045260246000fd5b60006001820161114b5761114b610f41565b506001019056fea264697066735822122063c0d656c3af5f361a73c95c21e3e02a1a244feff4f1e4ecd288fbe9e8efb06164736f6c63430008140033",
  "linkReferences": {},
  "deployedLinkReferences": {}
}